{
  "contractName": "Election",
  "abi": [
    {
      "inputs": [],
      "stateMutability": "nonpayable",
      "type": "constructor"
    },
    {
      "anonymous": false,
      "inputs": [
        {
          "indexed": true,
          "internalType": "uint256",
          "name": "_candidateId",
          "type": "uint256"
        }
      ],
      "name": "Voted",
      "type": "event"
    },
    {
      "inputs": [],
      "name": "candidatesCount",
      "outputs": [
        {
          "internalType": "uint256",
          "name": "",
          "type": "uint256"
        }
      ],
      "stateMutability": "view",
      "type": "function",
      "constant": true
    },
    {
      "inputs": [],
      "name": "electionState",
      "outputs": [
        {
          "internalType": "enum Election.State",
          "name": "",
          "type": "uint8"
        }
      ],
      "stateMutability": "view",
      "type": "function",
      "constant": true
    },
    {
      "inputs": [],
      "name": "owner",
      "outputs": [
        {
          "internalType": "address",
          "name": "",
          "type": "address"
        }
      ],
      "stateMutability": "view",
      "type": "function",
      "constant": true
    },
    {
      "inputs": [],
      "name": "votersCount",
      "outputs": [
        {
          "internalType": "uint256",
          "name": "",
          "type": "uint256"
        }
      ],
      "stateMutability": "view",
      "type": "function",
      "constant": true
    },
    {
      "inputs": [],
      "name": "startElection",
      "outputs": [],
      "stateMutability": "nonpayable",
      "type": "function"
    },
    {
      "inputs": [],
      "name": "endElection",
      "outputs": [],
      "stateMutability": "nonpayable",
      "type": "function"
    },
    {
      "inputs": [
        {
          "internalType": "string",
          "name": "_name",
          "type": "string"
        }
      ],
      "name": "addCandidate",
      "outputs": [],
      "stateMutability": "nonpayable",
      "type": "function"
    },
    {
      "inputs": [
        {
          "internalType": "address",
          "name": "_voter",
          "type": "address"
        }
      ],
      "name": "addVoter",
      "outputs": [],
      "stateMutability": "nonpayable",
      "type": "function"
    },
    {
      "inputs": [
        {
          "internalType": "address",
          "name": "_current",
          "type": "address"
        }
      ],
      "name": "getRole",
      "outputs": [
        {
          "internalType": "uint256",
          "name": "",
          "type": "uint256"
        }
      ],
      "stateMutability": "view",
      "type": "function",
      "constant": true
    },
    {
      "inputs": [
        {
          "internalType": "uint256",
          "name": "_candidateId",
          "type": "uint256"
        }
      ],
      "name": "vote",
      "outputs": [],
      "stateMutability": "nonpayable",
      "type": "function"
    },
    {
      "inputs": [
        {
          "internalType": "uint256",
          "name": "_candidateId",
          "type": "uint256"
        }
      ],
      "name": "getCandidateDetails",
      "outputs": [
        {
          "internalType": "string",
          "name": "",
          "type": "string"
        },
        {
          "internalType": "uint256",
          "name": "",
          "type": "uint256"
        }
      ],
      "stateMutability": "view",
      "type": "function",
      "constant": true
    }
  ],
  "bytecode": "0x6080604052600060045560006005553480156200001b57600080fd5b50336000806101000a81548173ffffffffffffffffffffffffffffffffffffffff021916908373ffffffffffffffffffffffffffffffffffffffff16021790555060008060146101000a81548160ff0219169083600281111562000084576200008362000361565b5b0217905550620000cf6040518060400160405280600881526020017f4d617261646f6e610000000000000000000000000000000000000000000000008152506200011b60201b60201c565b620001156040518060400160405280600281526020017f52390000000000000000000000000000000000000000000000000000000000008152506200011b60201b60201c565b62000595565b3373ffffffffffffffffffffffffffffffffffffffff1660008054906101000a900473ffffffffffffffffffffffffffffffffffffffff1673ffffffffffffffffffffffffffffffffffffffff1614620001ac576040517f08c379a0000000000000000000000000000000000000000000000000000000008152600401620001a39062000417565b60405180910390fd5b60006002811115620001c357620001c262000361565b5b600060149054906101000a900460ff166002811115620001e857620001e762000361565b5b146200022b576040517f08c379a0000000000000000000000000000000000000000000000000000000008152600401620002229062000489565b60405180910390fd5b60405180606001604052806004548152602001828152602001600081525060016000600454815260200190815260200160002060008201518160000155602082015181600101908051906020019062000286929190620002b1565b506040820151816002015590505060046000815480929190620002a990620004e4565b919050555050565b828054620002bf9062000560565b90600052602060002090601f016020900481019282620002e357600085556200032f565b82601f10620002fe57805160ff19168380011785556200032f565b828001600101855582156200032f579182015b828111156200032e57825182559160200191906001019062000311565b5b5090506200033e919062000342565b5090565b5b808211156200035d57600081600090555060010162000343565b5090565b7f4e487b7100000000000000000000000000000000000000000000000000000000600052602160045260246000fd5b600082825260208201905092915050565b7f534f4c4f204c27414d4d494e4953545241544f52452050554f2720414747495560008201527f4e474552452043414e4449444154490000000000000000000000000000000000602082015250565b6000620003ff602f8362000390565b91506200040c82620003a1565b604082019050919050565b600060208201905081810360008301526200043281620003f0565b9050919050565b7f454c455a494f4e49204749412720494e5a494154450000000000000000000000600082015250565b60006200047160158362000390565b91506200047e8262000439565b602082019050919050565b60006020820190508181036000830152620004a48162000462565b9050919050565b7f4e487b7100000000000000000000000000000000000000000000000000000000600052601160045260246000fd5b6000819050919050565b6000620004f182620004da565b91507fffffffffffffffffffffffffffffffffffffffffffffffffffffffffffffffff8203620005265762000525620004ab565b5b600182019050919050565b7f4e487b7100000000000000000000000000000000000000000000000000000000600052602260045260246000fd5b600060028204905060018216806200057957607f821691505b6020821081036200058f576200058e62000531565b5b50919050565b61159280620005a56000396000f3fe608060405234801561001057600080fd5b50600436106100a95760003560e01c8063462e91ec11610071578063462e91ec1461016757806359f784681461018357806362d73eb81461018d5780638da5cb5b1461019757806398c07938146101b5578063f4ab9adf146101d3576100a9565b80630121b93f146100ae5780632280043d146100ca57806327f9fd50146100e85780632d35a8a2146101195780634427673314610137575b600080fd5b6100c860048036038101906100c39190610c88565b6101ef565b005b6100d2610483565b6040516100df9190610d2c565b60405180910390f35b61010260048036038101906100fd9190610c88565b610496565b604051610110929190610def565b60405180910390f35b6101216105ac565b60405161012e9190610e1f565b60405180910390f35b610151600480360381019061014c9190610e98565b6105b2565b60405161015e9190610e1f565b60405180910390f35b610181600480360381019061017c9190610ffa565b610675565b005b61018b6107fb565b005b6101956108c0565b005b61019f610985565b6040516101ac9190611052565b60405180910390f35b6101bd6109a9565b6040516101ca9190610e1f565b60405180910390f35b6101ed60048036038101906101e89190610e98565b6109af565b005b6001600281111561020357610202610cb5565b5b600060149054906101000a900460ff16600281111561022557610224610cb5565b5b14610265576040517f08c379a000000000000000000000000000000000000000000000000000000000815260040161025c906110b9565b60405180910390fd5b600360003373ffffffffffffffffffffffffffffffffffffffff1673ffffffffffffffffffffffffffffffffffffffff16815260200190815260200160002060009054906101000a900460ff166102f1576040517f08c379a00000000000000000000000000000000000000000000000000000000081526004016102e890611125565b60405180910390fd5b600260003373ffffffffffffffffffffffffffffffffffffffff1673ffffffffffffffffffffffffffffffffffffffff16815260200190815260200160002060009054906101000a900460ff161561037e576040517f08c379a000000000000000000000000000000000000000000000000000000000815260040161037590611191565b60405180910390fd5b60008110158015610390575060045481105b6103cf576040517f08c379a00000000000000000000000000000000000000000000000000000000081526004016103c6906111fd565b60405180910390fd5b6001600082815260200190815260200160002060020160008154809291906103f69061124c565b91905055506001600260003373ffffffffffffffffffffffffffffffffffffffff1673ffffffffffffffffffffffffffffffffffffffff16815260200190815260200160002060006101000a81548160ff021916908315150217905550807f7f511e347bf51eed3be100b3194247d5207f05f3b33de7d31e3e8ee73199a04960405160405180910390a250565b600060149054906101000a900460ff1681565b606060008083101580156104ab575060045483105b6104ea576040517f08c379a00000000000000000000000000000000000000000000000000000000081526004016104e1906111fd565b60405180910390fd5b600160008481526020019081526020016000206001016001600085815260200190815260200160002060020154818054610523906112c3565b80601f016020809104026020016040519081016040528092919081815260200182805461054f906112c3565b801561059c5780601f106105715761010080835404028352916020019161059c565b820191906000526020600020905b81548152906001019060200180831161057f57829003601f168201915b5050505050915091509150915091565b60045481565b60008173ffffffffffffffffffffffffffffffffffffffff1660008054906101000a900473ffffffffffffffffffffffffffffffffffffffff1673ffffffffffffffffffffffffffffffffffffffff16036106105760019050610670565b600360008373ffffffffffffffffffffffffffffffffffffffff1673ffffffffffffffffffffffffffffffffffffffff16815260200190815260200160002060009054906101000a900460ff161561066b5760029050610670565b600390505b919050565b3373ffffffffffffffffffffffffffffffffffffffff1660008054906101000a900473ffffffffffffffffffffffffffffffffffffffff1673ffffffffffffffffffffffffffffffffffffffff1614610703576040517f08c379a00000000000000000000000000000000000000000000000000000000081526004016106fa90611366565b60405180910390fd5b6000600281111561071757610716610cb5565b5b600060149054906101000a900460ff16600281111561073957610738610cb5565b5b14610779576040517f08c379a0000000000000000000000000000000000000000000000000000000008152600401610770906113d2565b60405180910390fd5b6040518060600160405280600454815260200182815260200160008152506001600060045481526020019081526020016000206000820151816000015560208201518160010190805190602001906107d2929190610b9b565b5060408201518160020155905050600460008154809291906107f39061124c565b919050555050565b60008054906101000a900473ffffffffffffffffffffffffffffffffffffffff1673ffffffffffffffffffffffffffffffffffffffff163373ffffffffffffffffffffffffffffffffffffffff161461085357600080fd5b6001600281111561086757610866610cb5565b5b600060149054906101000a900460ff16600281111561088957610888610cb5565b5b1461089357600080fd5b6002600060146101000a81548160ff021916908360028111156108b9576108b8610cb5565b5b0217905550565b60008054906101000a900473ffffffffffffffffffffffffffffffffffffffff1673ffffffffffffffffffffffffffffffffffffffff163373ffffffffffffffffffffffffffffffffffffffff161461091857600080fd5b6000600281111561092c5761092b610cb5565b5b600060149054906101000a900460ff16600281111561094e5761094d610cb5565b5b1461095857600080fd5b6001600060146101000a81548160ff0219169083600281111561097e5761097d610cb5565b5b0217905550565b60008054906101000a900473ffffffffffffffffffffffffffffffffffffffff1681565b60055481565b3373ffffffffffffffffffffffffffffffffffffffff1660008054906101000a900473ffffffffffffffffffffffffffffffffffffffff1673ffffffffffffffffffffffffffffffffffffffff1614610a3d576040517f08c379a0000000000000000000000000000000000000000000000000000000008152600401610a349061143e565b60405180910390fd5b600360008273ffffffffffffffffffffffffffffffffffffffff1673ffffffffffffffffffffffffffffffffffffffff16815260200190815260200160002060009054906101000a900460ff1615610aca576040517f08c379a0000000000000000000000000000000000000000000000000000000008152600401610ac1906114aa565b60405180910390fd5b60006002811115610ade57610add610cb5565b5b600060149054906101000a900460ff166002811115610b0057610aff610cb5565b5b14610b40576040517f08c379a0000000000000000000000000000000000000000000000000000000008152600401610b379061153c565b60405180910390fd5b6001600360008373ffffffffffffffffffffffffffffffffffffffff1673ffffffffffffffffffffffffffffffffffffffff16815260200190815260200160002060006101000a81548160ff02191690831515021790555050565b828054610ba7906112c3565b90600052602060002090601f016020900481019282610bc95760008555610c10565b82601f10610be257805160ff1916838001178555610c10565b82800160010185558215610c10579182015b82811115610c0f578251825591602001919060010190610bf4565b5b509050610c1d9190610c21565b5090565b5b80821115610c3a576000816000905550600101610c22565b5090565b6000604051905090565b600080fd5b600080fd5b6000819050919050565b610c6581610c52565b8114610c7057600080fd5b50565b600081359050610c8281610c5c565b92915050565b600060208284031215610c9e57610c9d610c48565b5b6000610cac84828501610c73565b91505092915050565b7f4e487b7100000000000000000000000000000000000000000000000000000000600052602160045260246000fd5b60038110610cf557610cf4610cb5565b5b50565b6000819050610d0682610ce4565b919050565b6000610d1682610cf8565b9050919050565b610d2681610d0b565b82525050565b6000602082019050610d416000830184610d1d565b92915050565b600081519050919050565b600082825260208201905092915050565b60005b83811015610d81578082015181840152602081019050610d66565b83811115610d90576000848401525b50505050565b6000601f19601f8301169050919050565b6000610db282610d47565b610dbc8185610d52565b9350610dcc818560208601610d63565b610dd581610d96565b840191505092915050565b610de981610c52565b82525050565b60006040820190508181036000830152610e098185610da7565b9050610e186020830184610de0565b9392505050565b6000602082019050610e346000830184610de0565b92915050565b600073ffffffffffffffffffffffffffffffffffffffff82169050919050565b6000610e6582610e3a565b9050919050565b610e7581610e5a565b8114610e8057600080fd5b50565b600081359050610e9281610e6c565b92915050565b600060208284031215610eae57610ead610c48565b5b6000610ebc84828501610e83565b91505092915050565b600080fd5b600080fd5b7f4e487b7100000000000000000000000000000000000000000000000000000000600052604160045260246000fd5b610f0782610d96565b810181811067ffffffffffffffff82111715610f2657610f25610ecf565b5b80604052505050565b6000610f39610c3e565b9050610f458282610efe565b919050565b600067ffffffffffffffff821115610f6557610f64610ecf565b5b610f6e82610d96565b9050602081019050919050565b82818337600083830152505050565b6000610f9d610f9884610f4a565b610f2f565b905082815260208101848484011115610fb957610fb8610eca565b5b610fc4848285610f7b565b509392505050565b600082601f830112610fe157610fe0610ec5565b5b8135610ff1848260208601610f8a565b91505092915050565b6000602082840312156110105761100f610c48565b5b600082013567ffffffffffffffff81111561102e5761102d610c4d565b5b61103a84828501610fcc565b91505092915050565b61104c81610e5a565b82525050565b60006020820190506110676000830184611043565b92915050565b7f454c455a494f4e49204e4f4e20494e5a49415445000000000000000000000000600082015250565b60006110a3601483610d52565b91506110ae8261106d565b602082019050919050565b600060208201905081810360008301526110d281611096565b9050919050565b7f5554454e5445204e4f4e204155544f52495a5a41544f00000000000000000000600082015250565b600061110f601683610d52565b915061111a826110d9565b602082019050919050565b6000602082019050818103600083015261113e81611102565b9050919050565b7f484149204749412720564f5441544f0000000000000000000000000000000000600082015250565b600061117b600f83610d52565b915061118682611145565b602082019050919050565b600060208201905081810360008301526111aa8161116e565b9050919050565b7f4944204e4f4e2056414c49444f00000000000000000000000000000000000000600082015250565b60006111e7600d83610d52565b91506111f2826111b1565b602082019050919050565b60006020820190508181036000830152611216816111da565b9050919050565b7f4e487b7100000000000000000000000000000000000000000000000000000000600052601160045260246000fd5b600061125782610c52565b91507fffffffffffffffffffffffffffffffffffffffffffffffffffffffffffffffff82036112895761128861121d565b5b600182019050919050565b7f4e487b7100000000000000000000000000000000000000000000000000000000600052602260045260246000fd5b600060028204905060018216806112db57607f821691505b6020821081036112ee576112ed611294565b5b50919050565b7f534f4c4f204c27414d4d494e4953545241544f52452050554f2720414747495560008201527f4e474552452043414e4449444154490000000000000000000000000000000000602082015250565b6000611350602f83610d52565b915061135b826112f4565b604082019050919050565b6000602082019050818103600083015261137f81611343565b9050919050565b7f454c455a494f4e49204749412720494e5a494154450000000000000000000000600082015250565b60006113bc601583610d52565b91506113c782611386565b602082019050919050565b600060208201905081810360008301526113eb816113af565b9050919050565b7f4f6e6c79206f776e65722063616e2061646420766f7465720000000000000000600082015250565b6000611428601883610d52565b9150611433826113f2565b602082019050919050565b600060208201905081810360008301526114578161141b565b9050919050565b7f564f54414e544520474941272041474749554e544f0000000000000000000000600082015250565b6000611494601583610d52565b915061149f8261145e565b602082019050919050565b600060208201905081810360008301526114c381611487565b9050919050565b7f494c20564f54414e5445204e4f4e2050554f272045535345524520414747495560008201527f4e544f20444f504f204c27494e495a494f2044454c4c4520454c455a494f4e49602082015250565b6000611526604083610d52565b9150611531826114ca565b604082019050919050565b6000602082019050818103600083015261155581611519565b905091905056fea26469706673582212208614def4537bfb98abdda8e5d3a8689bf69f94d09f6419759ea3bc7de3f07c5364736f6c634300080e0033",
  "immutableReferences": {},
  "source": "// SPDX-License-Identifier: MIT\r\npragma solidity >=0.4.0 <0.9.0;\r\n\r\ncontract Election {\r\n    enum State {\r\n        NotStarted,\r\n        InProgress,\r\n        Ended\r\n    }\r\n\r\n    struct Candidate {\r\n        uint256 id;\r\n        string name;\r\n        uint256 voteCount;\r\n    }\r\n\r\n    address public owner;\r\n    State public electionState;\r\n\r\n    struct Voter {\r\n        uint256 id;\r\n        string name;\r\n    }\r\n\r\n    mapping(uint256 => Candidate) candidates;\r\n    mapping(address => bool) voted;\r\n\r\n    mapping(address => bool) isVoter;\r\n\r\n    uint256 public candidatesCount = 0;\r\n\r\n    uint256 public votersCount = 0;\r\n\r\n    constructor() {\r\n        owner = msg.sender;\r\n        electionState = State.NotStarted;\r\n        addCandidate(\"Maradona\");\r\n        addCandidate(\"R9\");\r\n    }\r\n\r\n    event Voted(uint256 indexed _candidateId);\r\n\r\n    function startElection() public {\r\n        require(msg.sender == owner);\r\n        require(electionState == State.NotStarted);\r\n        electionState = State.InProgress;\r\n    }\r\n\r\n    function endElection() public {\r\n        require(msg.sender == owner);\r\n        require(electionState == State.InProgress);\r\n        electionState = State.Ended;\r\n    }\r\n\r\n    function addCandidate(string memory _name) public {\r\n        require(owner == msg.sender, \"SOLO L'AMMINISTRATORE PUO' AGGIUNGERE CANDIDATI\");\r\n        require(\r\n            electionState == State.NotStarted,\r\n            \"ELEZIONI GIA' INZIATE\"\r\n        );\r\n\r\n        candidates[candidatesCount] = Candidate(candidatesCount, _name, 0);\r\n        candidatesCount++;\r\n    }\r\n\r\n    function addVoter(address _voter) public {\r\n        require(owner == msg.sender, \"Only owner can add voter\");\r\n        require(!isVoter[_voter], \"VOTANTE GIA' AGGIUNTO\");\r\n        require(\r\n            electionState == State.NotStarted,\r\n            \"IL VOTANTE NON PUO' ESSERE AGGIUNTO DOPO L'INIZIO DELLE ELEZIONI\"\r\n        );\r\n\r\n        isVoter[_voter] = true;\r\n    }\r\n\r\n    function getRole(address _current) public view returns (uint256) {\r\n        if (owner == _current) {\r\n            return 1;\r\n        } else if (isVoter[_current]) {\r\n            return 2;\r\n        } else {\r\n            return 3;\r\n        }\r\n    }\r\n\r\n    function vote(uint256 _candidateId) public {\r\n        require(\r\n            electionState == State.InProgress,\r\n            \"ELEZIONI NON INZIATE\"\r\n        );\r\n        require(isVoter[msg.sender], \"UTENTE NON AUTORIZZATO\");\r\n        require(!voted[msg.sender], \"HAI GIA' VOTATO\");\r\n        require(\r\n            _candidateId >= 0 && _candidateId < candidatesCount,\r\n            \"ID NON VALIDO\"\r\n        );\r\n\r\n        candidates[_candidateId].voteCount++;\r\n        voted[msg.sender] = true;\r\n\r\n        emit Voted(_candidateId);\r\n    }\r\n\r\n    function getCandidateDetails(uint256 _candidateId)\r\n        public\r\n        view\r\n        returns (string memory, uint256)\r\n    {\r\n        require(\r\n            _candidateId >= 0 && _candidateId < candidatesCount,\r\n            \"ID NON VALIDO\"\r\n        );\r\n        return (\r\n            candidates[_candidateId].name,\r\n            candidates[_candidateId].voteCount\r\n        );\r\n    }\r\n}\r\n",
  "sourcePath": "/Users/giuseppeadduce/Desktop/SICUREZZA PROGETTO/Pallone d'oro Storico/contracts/Voting.sol",
  "compiler": {
    "name": "solc",
    "version": "0.8.14+commit.80d49f37.Emscripten.clang"
  },
  "schemaVersion": "3.4.16",
  "updatedAt": "2024-07-29T08:29:56.710Z",
  "networkType": "ethereum",
  "devdoc": {
    "kind": "dev",
    "methods": {},
    "version": 1
  },
  "userdoc": {
    "kind": "user",
    "methods": {},
    "version": 1
  }
}